:020000020000FC
:060000001FC0ACC0C1C02E
:02000C0063C0CF
:02001A00CCC058
:100040000FE50DBF02E00EBFF4D033D139D0DBD0C5
:10005000CAD0789405E019D0009165003DD1009197
:1000600064003AD100E230D100916B0035D10091AB
:100070006A0032D100E228D1009171002DD10091A7
:1000800070002AD10DE020D1E5CF0F9390E384E3F7
:100090000197F1F70A95D1F70F9108950A3008F00A
:1000A000095F005D0895102F069506950695069543
:1000B000F5DF0F93012F0F70F1DF102F0F910895CF
:1000C0000F930BB7006E0BBF05B7056005BF8C9A89
:1000D0000F9108950F930FB70F9311D006B70160DA
:1000E00006BF949A0000000000000000000000001D
:1000F0000000000094980F910FBF0F9118950F9377
:100100001F930091620010916000011B0093640036
:100110000091630010916100010B00936500009154
:10012000680010916600011B00936A00009169004D
:1001300010916700010B00936B0000916E0010910D
:100140006C00011B0093700000916F0010916D0016
:10015000010B009371001F910F9108950F930FB73A
:100160000F93829B07C00CB5009360000DB5009300
:10017000610006C00CB5009362000DB500936300EA
:100180000F910FBF0F9118950F930FB70F93839B8C
:1001900007C00CB5009366000DB50093670006C05C
:1001A0000CB5009368000DB5009369000F910FBF67
:1001B0000F9118950F930FB70F93289B0AC00CB59A
:1001C00000936C000DB500936D0006B70E7F06BF5F
:1001D00006C00CB500936E000DB500936F000F9133
:1001E0000FBF0F9118950F930FB5026A0FBD0EB593
:1001F00009610EBD00E805BD00E004BD09B7006857
:1002000009BF0F9108950F938D9A329A8E9A8F9A03
:1002100000E403D096980F9108950F930BBD00272B
:100220000ABD0F9108950F9309BD002708BD0F91D6
:1002300008950F930FEF0ABB04B3036004BB01E002
:1002400024DF00EF0CD00BD00FE009D029D006E05E
:1002500006D001E01ADF01E410D00F9108950F934A
:100260000BBB05B301600D7F05BB00000000000063
:100270000E7F05BB0FD00F9108950F930BBB05B3F5
:10028000036005BB0000000000000E7F05BB02D02C
:100290000F9108950F930FE00A95F1F30F910895D0
:1002A0000F9301E0DCDF08E2F5DF0A95E1F30F913F
:1002B00008950F9300E000BD0CE009B908E10AB908
:1002C00006E800BD0F9108955D9BFECF0CB908951F
:1002D0005F9BFECF0CB108950F931F93E4DEF4DF14
:0A02E000012FF2DF1F910F91089526
:00000001FF
